{
  "contractName": "Project",
  "abi": [
    {
      "inputs": [],
      "name": "balance",
      "outputs": [
        {
          "internalType": "uint256",
          "name": "",
          "type": "uint256"
        }
      ],
      "stateMutability": "view",
      "type": "function",
      "constant": true
    },
    {
      "inputs": [
        {
          "internalType": "uint256",
          "name": "_balance",
          "type": "uint256"
        }
      ],
      "name": "setBalance",
      "outputs": [],
      "stateMutability": "nonpayable",
      "type": "function"
    },
    {
      "inputs": [],
      "name": "isZero",
      "outputs": [],
      "stateMutability": "view",
      "type": "function",
      "constant": true
    },
    {
      "inputs": [
        {
          "internalType": "uint256",
          "name": "_amount",
          "type": "uint256"
        }
      ],
      "name": "withdraw",
      "outputs": [],
      "stateMutability": "nonpayable",
      "type": "function"
    }
  ],
  "bytecode": "0x608060405234801561001057600080fd5b506103b9806100206000396000f3fe608060405234801561001057600080fd5b506004361061004c5760003560e01c80632e1a7d4d146100515780634896bcb11461006d578063b69ef8a814610077578063fb1669ca14610095575b600080fd5b61006b600480360381019061006691906101b1565b6100b1565b005b61007561010f565b005b61007f610123565b60405161008c91906101ed565b60405180910390f35b6100af60048036038101906100aa91906101b1565b610129565b005b600081036100f4576040517f08c379a00000000000000000000000000000000000000000000000000000000081526004016100eb90610265565b60405180910390fd5b8060008082825461010591906102b4565b9250508190555050565b6000805414610121576101206102e8565b5b565b60005481565b6005811161016c576040517f08c379a000000000000000000000000000000000000000000000000000000000815260040161016390610363565b60405180910390fd5b8060008190555050565b600080fd5b6000819050919050565b61018e8161017b565b811461019957600080fd5b50565b6000813590506101ab81610185565b92915050565b6000602082840312156101c7576101c6610176565b5b60006101d58482850161019c565b91505092915050565b6101e78161017b565b82525050565b600060208201905061020260008301846101de565b92915050565b600082825260208201905092915050565b7f416d6f756e742063616e6e6f74206265207a65726f2100000000000000000000600082015250565b600061024f601683610208565b915061025a82610219565b602082019050919050565b6000602082019050818103600083015261027e81610242565b9050919050565b7f4e487b7100000000000000000000000000000000000000000000000000000000600052601160045260246000fd5b60006102bf8261017b565b91506102ca8361017b565b92508282039050818111156102e2576102e1610285565b5b92915050565b7f4e487b7100000000000000000000000000000000000000000000000000000000600052600160045260246000fd5b7f42616c616e6365206d7573742062652067726561746572207468616e20352100600082015250565b600061034d601f83610208565b915061035882610317565b602082019050919050565b6000602082019050818103600083015261037c81610340565b905091905056fea2646970667358221220c2345e20a76859ba19d8d8cf9ba481330c5540ec1299253e34aa8fd7eb78999f64736f6c63430008110033",
  "immutableReferences": {},
  "source": "// SPDX-License-Identifier: MIT\n// compiler version must be greater than or equal to 0.8.17 and less than 0.9.0\n// ETH + AVAX Proof: Intermediate Course Module 1\n// Use require, assert, and revert function\n\npragma solidity ^0.8.17;\ncontract Project {\n    uint public balance;\n\n    function setBalance(uint _balance) public {\n        require(_balance > 5, \"Balance must be greater than 5!\");\n        balance = _balance;\n    }\n\n    function isZero() public view {\n        assert(balance == 0);\n    }\n    \n    function withdraw(uint _amount) public {\n        if(_amount == 0) {\n            revert(\"Amount cannot be zero!\");\n        }\n        balance -= _amount;\n    }\n}\n",
  "sourcePath": "/workspace/solidity_starter/contracts/Project.sol",
  "compiler": {
    "name": "solc",
    "version": "0.8.17+commit.8df45f5f.Emscripten.clang"
  },
  "schemaVersion": "3.4.14",
  "updatedAt": "2023-07-14T09:18:06.832Z",
  "networkType": "ethereum",
  "devdoc": {
    "kind": "dev",
    "methods": {},
    "version": 1
  },
  "userdoc": {
    "kind": "user",
    "methods": {},
    "version": 1
  }
}